S01300006F706472616368742042322E7372656328
S113000045C0000072C00000BCC000005CC000001D
S11300105AC0000058C0000056C0000054C0000080
S113002052C0000050C000004EC000004CC0000090
S11300304AC0000048C0000046C0000044C00000A0
S113004042C0000040C000003EC000003CC00000B0
S11300503AC0000038C0000036C0000034C00000C0
S113006032C0000030C000002EC000002CC00000D0
S11300702AC0000028C0000026C0000024C00000E0
S113008022C0000020C000001EC0000011241FBEBA
S1130090CFEFD0E1DEBFCDBF11E0A0E0B1E0E6E3F9
S11300A0F2E000E00BBF02C007900D92A838B10740
S11300B0D9F721E0A8E8B1E001C01D92AA38B2073F
S11300C0E1F7ABD0B6C09CCF181619066CF420E04B
S11300D030E0EFECF7E03197F1F700C000002F5F5C
S11300E03F4F82179307A9F708951F920F920FB6F7
S11300F00F9211240BB60F922F933F934F935F935C
S11301006F937F938F939F93AF93BF93EF93FF93DB
S11301108091880190918901FC01EE0FFF1F8E0FE1
S11301209F1FFC01E050FF4F808182BB80918801BA
S113013090918901FC01EE0FFF1F8E0F9F1FFC01A0
S1130140E050FF4F81819281BFDF809188019091BF
S1130150890101969093890180938801FF91EF9121
S1130160BF91AF919F918F917F916F915F914F91CB
S11301703F912F910F900BBE0F900FBE0F901F90C9
S113018018951F920F920FB60F9211240BB60F926F
S11301902F933F934F935F936F937F938F939F938B
S11301A0AF93BF93EF93FF9380918801909189015E
S11301B0FC01EE0FFF1F8E0F9F1FFC01E050FF4F4D
S11301C0808182BB8091880190918901FC01EE0FAE
S11301D0FF1F8E0F9F1FFC01E050FF4F8181928112
S11301E073DF809188019091890101969093890130
S11301F080938801FF91EF91BF91AF919F918F916F
S11302007F916F915F914F913F912F910F900BBE12
S11302100F900FBE0F901F9018958CEF81BBEAE6EC
S1130220F0E080818B60808389B7836089BF789494
S1090230FFCFF894FFCF9C
S11302360164000264000464000864001064002081
S11302466400406400806400816400826400846405
S113025600886400906400A06400C06400C1640067
S1130266C26400C46400C86400D06400E06400E1B1
S11302766400E26400E46400E86400F06400F1648D
S113028600F26400F46400F86400F96400FA64009F
S1130296FC6400FD6400FE6400FF6400006400FF6B
S11302A66400006400FF6400E76400C364008164C2
S10B02B60000640000000000D8
S9030000FC
