S01300006F706472616368742042332E7372656327
S113000056C0000076C000008BC0000060C0000035
S11300105EC000005CC000005AC0000058C0000070
S113002056C0000054C0000052C0000050C0000080
S11300304EC000004CC000004AC0000048C0000090
S113004046C0000044C0000042C0000040C00000A0
S11300503EC000003CC000003AC0000038C00000B0
S113006036C0000034C0000032C0000030C00000C0
S11300702EC000002CC000002AC0000028C00000D0
S113008026C0000024C0000022C00000E900EC00EB
S1130090EF00F200F400F600F800FA00FC00FE00A5
S11300A0000102010401060108010A010C011124E6
S11300B01FBECFEFD0E1DEBFCDBF21E0A0E0B1E0B5
S11300C001C01D92A230B207E1F741D0B0C098CF71
S11300D0181619066CF420E030E0EFECF7E03197E5
S11300E0F1F700C000002F5F3F4F82179307A9F775
S11300F008951F920F920FB60F9211248F939F931E
S113010080910001909101010196909301018093E7
S113011000019F918F910F900FBE0F901F90189523
S11301201F920F920FB60F9211248F939F93809179
S113013000019091010101979093010180930001C6
S11301409F918F910F900FBE0F901F9018958CEF79
S113015081BB8FEF84BBEAE6F0E080818B60808313
S113016089B7836089BF7894C9E70F2EF1E77F2EA2
S1130170F02D0F2EFEE58F2EF02D0F2EF9E39F2E7E
S1130180F02D0F2EFCE7AF2EF02D0F2EF7E7BF2E2C
S1130190F02D0F2EFFE6CF2EF02D0F2EFFE7DF2ED2
S11301A0F02D0F2EF7E0EF2EF02D0F2EFDE7FF2E92
S11301B0F02D0DE616E6DFE484E690E089DFE091B9
S11301C00001F0910101E131F105B0F7EA5BFF4F65
S11301D025C08FE385BBF0CF86E085BBEDCF8BE5F3
S11301E085BBEACFD5BBE8CF15BBE6CF05BBE4CFD3
S11301F0F5BAE2CFE5BAE0CFD5BADECFC5BADCCFE7
S1130200B5BADACFA5BAD8CF95BAD6CF85BAD4CFF6
S1130210C5BBD2CF75BAD0CFC5BBCECFEE0FFF1FB3
S11302200024001C0BBE0790F691E02D0994F8946D
S1050230FFCFFA
S9030000FC
