S01300006F706472616368742042332E7372656327
S113000056C0000083C0000098C000006DC000000E
S11300106BC0000069C0000067C0000065C000003C
S113002063C0000061C000005FC000005DC000004C
S11300305BC0000059C0000057C0000055C000005C
S113004053C0000051C000004FC000004DC000006C
S11300504BC0000049C0000047C0000045C000007C
S113006043C0000041C000003FC000003DC000008C
S11300703BC0000039C0000037C0000035C000009C
S113008033C0000031C000002FC00000F600F900AA
S1130090FC00FF00010103010501070109010B0137
S11300A00D010F011101130115011701190111248B
S11300B01FBECFEFD0E1DEBFCDBF11E0A0E0B1E0C5
S11300C0ECE4F2E000E00BBF02C007900D92A03018
S11300D0B107D9F721E0A0E0B1E001C01D92A23040
S11300E0B207E1F741D0B0C08BCF181619066CF4F3
S11300F020E030E0EFECF7E03197F1F700C00000CA
S11301002F5F3F4F82179307A9F708951F920F920D
S11301100FB60F9211248F939F93809100019091B9
S11301200101019690930101809300019F918F91A9
S11301300F900FBE0F901F9018951F920F920FB63D
S11301400F9211248F939F9380910001909101014C
S1130150019790930101809300019F918F910F90DB
S11301600FBE0F901F9018958CEF81BB8FEF84BB4F
S1130170EAE6F0E080818B60808389B7836089BF81
S11301807894C9E70F2EF1E77F2EF02D0F2EFEE5B0
S11301908F2EF02D0F2EF9E39F2EF02D0F2EFCE75E
S11301A0AF2EF02D0F2EF7E7BF2EF02D0F2EFFE60A
S11301B0CF2EF02D0F2EFFE7DF2EF02D0F2EF7E0C0
S11301C0EF2EF02D0F2EFDE7FF2EF02D0DE616E697
S11301D0DFE484E690E089DFE0910001F091010121
S11301E0E131F105B0F7EA5BFF4F25C08FE385BB32
S11301F0F0CF86E085BBEDCF8BE585BBEACFD5BBE1
S1130200E8CF15BBE6CF05BBE4CFF5BAE2CFE5BA3C
S1130210E0CFD5BADECFC5BADCCFB5BADACFA5BA4E
S1130220D8CF95BAD6CF85BAD4CFC5BBD2CF75BAFD
S1130230D0CFC5BBCECFEE0FFF1F0024001C0BBEDA
S10F02400790F691E02D0994F894FFCF8C
S9030000FC
