S01400006F70647261636874203342312E73726563F5
S113000045C0000058C0000056C0000054C00000A5
S113001052C0000050C000004EC000004CC00000A0
S11300204AC0000048C0000046C0000044C00000B0
S113003042C0000040C000003EC000003CC00000C0
S11300403AC0000038C0000036C0000034C00000D0
S113005032C0000030C000002EC000002CC00000E0
S11300602AC0000028C0000026C0000024C00000F0
S113007022C0000020C000001EC000001CC0000000
S11300801AC0000018C0000016C0000011241FBED2
S1130090CFEFD0E1DEBFCDBF11E0A0E0B1E0EAEBED
S11300A0F1E000E00BBF02C007900D92A031B10750
S11300B0D9F765D080C0A4CFAB9A8FEC97E00197B5
S11300C0F1F700C00000AB988FEC97E00197F1F7CF
S11300D000C000000895CF93C82F85BBAA9AECDF17
S11300E0C295C07FC5BBAA9AE7DFCF910895CF938D
S11300F0DF93EC018881882331F0219690E0EBDFD7
S113010089918111FBCFDF91CF910895982F907F32
S113011095BBAB9AEFECF7E03197F1F700C0000024
S113012094E095BBF0E18F9FC001112485BBAB9A8D
S11301308FEC97E00197F1F700C0000015BA08951D
S1130140CF938FEF84BB15BA81E090E0DFDFC0E28C
S1130150C5BBB2DFC5BBB0DF80E885BBADDF15BA78
S1130160ABDF80EF85BBA8DF15BAA6DF80E685BBD1
S1130170A3DFCF91089580589F4FC8CF08958FEF84
S113018081BBDEDF89E090E0F6DF80E091E0AFDF65
S113019088E290E0F0DF82E091E0A9DF82B380584A
S11301A082BB2FE78AE196E0215080409040E1F73E
S10D01B000C00000F3CFF894FFCF65
S11301BA5F0048414C4C4F20455449454E4E45003A
S9030000FC
