S01400006F70647261636874203342312E73726563F5
S113000045C0000058C0000056C0000054C00000A5
S113001052C0000050C000004EC000004CC00000A0
S11300204AC0000048C0000046C0000044C00000B0
S113003042C0000040C000003EC000003CC00000C0
S11300403AC0000038C0000036C0000034C00000D0
S113005032C0000030C000002EC000002CC00000E0
S11300602AC0000028C0000026C0000024C00000F0
S113007022C0000020C000001EC000001CC0000000
S11300801AC0000018C0000016C0000011241FBED2
S1130090CFEFD0E1DEBFCDBF11E0A0E0B1E0E8EAF0
S11300A0F1E000E00BBF02C007900D92A630B1074B
S11300B0D9F762D077C0A4CFAB9A8FEC97E00197C1
S11300C0F1F700C00000AB988FEC97E00197F1F7CF
S11300D000C000000895CF938FEF84BB15BAC0E22F
S11300E0C5BBEADFC5BBE8DF80E885BBE5DF15BA41
S11300F0E3DF80EF85BBE0DF15BADEDF80E685BB9A
S1130100DBDFCF910895CF93C82F85BBAA9AD4DFA4
S1130110C295C07FC5BBAA9ACFDFCF910895CF9374
S1130120DF93EC018881882331F0219690E0EBDFA6
S113013089918111FBCFDF91CF910895982F907F02
S113014095BBAB9AEFECF7E03197F1F700C00000F4
S113015094E095BBF0E18F9FC001112485BBAB9A5D
S11301608FEC97E00197F1F700C0000015BA0895ED
S113017080589F4FE3CF08958FEF81BBACDF85E0BC
S113018090E0F6DF80E091E0CADF82B3805882BB62
S11301902FE78AE196E0215080409040E1F700C0CB
S10B01A00000F3CFF894FFCF37
S10901A8546573740000AD
S9030000FC
